{
  "contractName": "RewildToken",
  "abi": [
    {
      "inputs": [],
      "stateMutability": "nonpayable",
      "type": "constructor"
    },
    {
      "anonymous": false,
      "inputs": [
        {
          "indexed": true,
          "internalType": "address",
          "name": "owner",
          "type": "address"
        },
        {
          "indexed": true,
          "internalType": "address",
          "name": "spender",
          "type": "address"
        },
        {
          "indexed": false,
          "internalType": "uint256",
          "name": "value",
          "type": "uint256"
        }
      ],
      "name": "Approval",
      "type": "event"
    },
    {
      "anonymous": false,
      "inputs": [
        {
          "indexed": true,
          "internalType": "address",
          "name": "previousOwner",
          "type": "address"
        },
        {
          "indexed": true,
          "internalType": "address",
          "name": "newOwner",
          "type": "address"
        }
      ],
      "name": "OwnershipTransferred",
      "type": "event"
    },
    {
      "anonymous": false,
      "inputs": [
        {
          "indexed": true,
          "internalType": "address",
          "name": "from",
          "type": "address"
        },
        {
          "indexed": true,
          "internalType": "address",
          "name": "to",
          "type": "address"
        },
        {
          "indexed": false,
          "internalType": "uint256",
          "name": "value",
          "type": "uint256"
        }
      ],
      "name": "Transfer",
      "type": "event"
    },
    {
      "inputs": [
        {
          "internalType": "address",
          "name": "owner",
          "type": "address"
        },
        {
          "internalType": "address",
          "name": "spender",
          "type": "address"
        }
      ],
      "name": "allowance",
      "outputs": [
        {
          "internalType": "uint256",
          "name": "",
          "type": "uint256"
        }
      ],
      "stateMutability": "view",
      "type": "function"
    },
    {
      "inputs": [
        {
          "internalType": "address",
          "name": "spender",
          "type": "address"
        },
        {
          "internalType": "uint256",
          "name": "amount",
          "type": "uint256"
        }
      ],
      "name": "approve",
      "outputs": [
        {
          "internalType": "bool",
          "name": "",
          "type": "bool"
        }
      ],
      "stateMutability": "nonpayable",
      "type": "function"
    },
    {
      "inputs": [
        {
          "internalType": "address",
          "name": "account",
          "type": "address"
        }
      ],
      "name": "balanceOf",
      "outputs": [
        {
          "internalType": "uint256",
          "name": "",
          "type": "uint256"
        }
      ],
      "stateMutability": "view",
      "type": "function"
    },
    {
      "inputs": [],
      "name": "decimals",
      "outputs": [
        {
          "internalType": "uint8",
          "name": "",
          "type": "uint8"
        }
      ],
      "stateMutability": "view",
      "type": "function"
    },
    {
      "inputs": [
        {
          "internalType": "address",
          "name": "spender",
          "type": "address"
        },
        {
          "internalType": "uint256",
          "name": "subtractedValue",
          "type": "uint256"
        }
      ],
      "name": "decreaseAllowance",
      "outputs": [
        {
          "internalType": "bool",
          "name": "",
          "type": "bool"
        }
      ],
      "stateMutability": "nonpayable",
      "type": "function"
    },
    {
      "inputs": [
        {
          "internalType": "address",
          "name": "spender",
          "type": "address"
        },
        {
          "internalType": "uint256",
          "name": "addedValue",
          "type": "uint256"
        }
      ],
      "name": "increaseAllowance",
      "outputs": [
        {
          "internalType": "bool",
          "name": "",
          "type": "bool"
        }
      ],
      "stateMutability": "nonpayable",
      "type": "function"
    },
    {
      "inputs": [],
      "name": "name",
      "outputs": [
        {
          "internalType": "string",
          "name": "",
          "type": "string"
        }
      ],
      "stateMutability": "view",
      "type": "function"
    },
    {
      "inputs": [],
      "name": "owner",
      "outputs": [
        {
          "internalType": "address",
          "name": "",
          "type": "address"
        }
      ],
      "stateMutability": "view",
      "type": "function"
    },
    {
      "inputs": [],
      "name": "symbol",
      "outputs": [
        {
          "internalType": "string",
          "name": "",
          "type": "string"
        }
      ],
      "stateMutability": "view",
      "type": "function"
    },
    {
      "inputs": [],
      "name": "totalSupply",
      "outputs": [
        {
          "internalType": "uint256",
          "name": "",
          "type": "uint256"
        }
      ],
      "stateMutability": "view",
      "type": "function"
    },
    {
      "inputs": [
        {
          "internalType": "address",
          "name": "newOwner",
          "type": "address"
        }
      ],
      "name": "transferOwnership",
      "outputs": [],
      "stateMutability": "nonpayable",
      "type": "function"
    },
    {
      "inputs": [
        {
          "internalType": "address",
          "name": "recipient",
          "type": "address"
        },
        {
          "internalType": "uint256",
          "name": "amount",
          "type": "uint256"
        }
      ],
      "name": "transfer",
      "outputs": [
        {
          "internalType": "bool",
          "name": "",
          "type": "bool"
        }
      ],
      "stateMutability": "nonpayable",
      "type": "function"
    },
    {
      "inputs": [
        {
          "internalType": "address",
          "name": "sender",
          "type": "address"
        },
        {
          "internalType": "address",
          "name": "recipient",
          "type": "address"
        },
        {
          "internalType": "uint256",
          "name": "amount",
          "type": "uint256"
        }
      ],
      "name": "transferFrom",
      "outputs": [
        {
          "internalType": "bool",
          "name": "",
          "type": "bool"
        }
      ],
      "stateMutability": "nonpayable",
      "type": "function"
    },
    {
      "inputs": [
        {
          "internalType": "uint8",
          "name": "taxBasisPoints_",
          "type": "uint8"
        }
      ],
      "name": "setTaxBasisPoints",
      "outputs": [
        {
          "internalType": "bool",
          "name": "",
          "type": "bool"
        }
      ],
      "stateMutability": "nonpayable",
      "type": "function"
    },
    {
      "inputs": [
        {
          "internalType": "address",
          "name": "donationAddress_",
          "type": "address"
        }
      ],
      "name": "setDonationAddress",
      "outputs": [
        {
          "internalType": "bool",
          "name": "",
          "type": "bool"
        }
      ],
      "stateMutability": "nonpayable",
      "type": "function"
    },
    {
      "inputs": [
        {
          "internalType": "uint256",
          "name": "amount_",
          "type": "uint256"
        }
      ],
      "name": "calculateTax",
      "outputs": [
        {
          "internalType": "uint256",
          "name": "",
          "type": "uint256"
        }
      ],
      "stateMutability": "view",
      "type": "function"
    },
    {
      "inputs": [
        {
          "internalType": "uint256",
          "name": "displayValue_",
          "type": "uint256"
        }
      ],
      "name": "getTokensFromDisplayValue",
      "outputs": [
        {
          "internalType": "uint256",
          "name": "",
          "type": "uint256"
        }
      ],
      "stateMutability": "view",
      "type": "function"
    },
    {
      "inputs": [],
      "name": "donationAddress",
      "outputs": [
        {
          "internalType": "address",
          "name": "",
          "type": "address"
        }
      ],
      "stateMutability": "view",
      "type": "function"
    },
    {
      "inputs": [],
      "name": "taxBasisPoints",
      "outputs": [
        {
          "internalType": "uint8",
          "name": "",
          "type": "uint8"
        }
      ],
      "stateMutability": "view",
      "type": "function"
    }
  ],
  "bytecode": "0x60806040526064600560146101000a81548160ff021916908360ff16021790555073b6e1aa93db091141ef1c67751b4068a2d807a8c2600660006101000a81548173ffffffffffffffffffffffffffffffffffffffff021916908373ffffffffffffffffffffffffffffffffffffffff160217905550601c600660146101000a81548160ff021916908360ff1602179055503480156200009e57600080fd5b506040518060400160405280600681526020017f526577696c6400000000000000000000000000000000000000000000000000008152506040518060400160405280600481526020017f52574c4400000000000000000000000000000000000000000000000000000000815250816003908051906020019062000123929190620005e4565b5080600490805190602001906200013c929190620005e4565b5050506000620001516200043560201b60201c565b905080600560006101000a81548173ffffffffffffffffffffffffffffffffffffffff021916908373ffffffffffffffffffffffffffffffffffffffff1602179055508073ffffffffffffffffffffffffffffffffffffffff16600073ffffffffffffffffffffffffffffffffffffffff167f8be0079c531659141344cd1fd0a4f28419497f9722a3daafe3b4186f6b6457e060405160405180910390a3506200022a733b1299734a1d85427a7b316a795f57bc4abab4546200021e6316e360006200043d60201b60201c565b6200047160201b60201c565b6200026473b6e1aa93db091141ef1c67751b4068a2d807a8c2620002586307a120006200043d60201b60201c565b6200047160201b60201c565b6200029e731602643fd58e6dafb0af9da75cac1fab8612a222620002926301e848006200043d60201b60201c565b6200047160201b60201c565b620002d87370b6275138e1293f177924fc531879e034688e07620002cc630186a0006200043d60201b60201c565b6200047160201b60201c565b6200031173e8d2915b7868884721a1030bf7a5d6ef38e3e4fe62000305621d4c006200043d60201b60201c565b6200047160201b60201c565b6200034a7361aceae8a22df9824e1ada9b7753385e329766bd6200033e62927c006200043d60201b60201c565b6200047160201b60201c565b620003837335948a563d89cde7b55aa87429ac926e65b4a36e6200037762927c006200043d60201b60201c565b6200047160201b60201c565b620003bc73f1804fb5048038f9cd5f56ad8b2dfd7de0778296620003b0621d4c006200043d60201b60201c565b6200047160201b60201c565b620003f573d5033d2bce919e60b89ba55094211a8d1f8ff600620003e9623a98006200043d60201b60201c565b6200047160201b60201c565b6200042f73066aa3a32e9b9d5fd48046499bd2b840bbd502836200042363029810006200043d60201b60201c565b6200047160201b60201c565b62000a53565b600033905090565b60006200044f620005d660201b60201c565b600a6200045d9190620007d4565b826200046a919062000911565b9050919050565b600073ffffffffffffffffffffffffffffffffffffffff168273ffffffffffffffffffffffffffffffffffffffff161415620004e4576040517f08c379a0000000000000000000000000000000000000000000000000000000008152600401620004db90620006cc565b60405180910390fd5b620004f860008383620005df60201b60201c565b80600260008282546200050c91906200071c565b92505081905550806000808473ffffffffffffffffffffffffffffffffffffffff1673ffffffffffffffffffffffffffffffffffffffff16815260200190815260200160002060008282546200056391906200071c565b925050819055508173ffffffffffffffffffffffffffffffffffffffff16600073ffffffffffffffffffffffffffffffffffffffff167fddf252ad1be2c89b69c2b068fc378daa952ba7f163c4a11628f55a4df523b3ef83604051620005ca9190620006ee565b60405180910390a35050565b60006012905090565b505050565b828054620005f29062000989565b90600052602060002090601f01602090048101928262000616576000855562000662565b82601f106200063157805160ff191683800117855562000662565b8280016001018555821562000662579182015b828111156200066157825182559160200191906001019062000644565b5b50905062000671919062000675565b5090565b5b808211156200069057600081600090555060010162000676565b5090565b6000620006a3601f836200070b565b9150620006b08262000a2a565b602082019050919050565b620006c68162000972565b82525050565b60006020820190508181036000830152620006e78162000694565b9050919050565b6000602082019050620007056000830184620006bb565b92915050565b600082825260208201905092915050565b6000620007298262000972565b9150620007368362000972565b9250827fffffffffffffffffffffffffffffffffffffffffffffffffffffffffffffffff038211156200076e576200076d620009bf565b5b828201905092915050565b6000808291508390505b6001851115620007cb57808604811115620007a357620007a2620009bf565b5b6001851615620007b35780820291505b8081029050620007c38562000a1d565b945062000783565b94509492505050565b6000620007e18262000972565b9150620007ee836200097c565b92506200081d7fffffffffffffffffffffffffffffffffffffffffffffffffffffffffffffffff848462000825565b905092915050565b6000826200083757600190506200090a565b816200084757600090506200090a565b81600181146200086057600281146200086b57620008a1565b60019150506200090a565b60ff84111562000880576200087f620009bf565b5b8360020a9150848211156200089a5762000899620009bf565b5b506200090a565b5060208310610133831016604e8410600b8410161715620008db5782820a905083811115620008d557620008d4620009bf565b5b6200090a565b620008ea848484600162000779565b92509050818404811115620009045762000903620009bf565b5b81810290505b9392505050565b60006200091e8262000972565b91506200092b8362000972565b9250817fffffffffffffffffffffffffffffffffffffffffffffffffffffffffffffffff0483118215151615620009675762000966620009bf565b5b828202905092915050565b6000819050919050565b600060ff82169050919050565b60006002820490506001821680620009a257607f821691505b60208210811415620009b957620009b8620009ee565b5b50919050565b7f4e487b7100000000000000000000000000000000000000000000000000000000600052601160045260246000fd5b7f4e487b7100000000000000000000000000000000000000000000000000000000600052602260045260246000fd5b60008160011c9050919050565b7f45524332303a206d696e7420746f20746865207a65726f206164647265737300600082015250565b611ec78062000a636000396000f3fe608060405234801561001057600080fd5b50600436106101215760003560e01c806370a08231116100ad578063a9059cbb11610071578063a9059cbb1461035a578063dd62ed3e1461038a578063eb10e4eb146103ba578063ec034bed146103ea578063f2fde38b1461040857610121565b806370a08231146102a05780637a210a2b146102d05780638da5cb5b146102ee57806395d89b411461030c578063a457c2d71461032a57610121565b8063313ce567116100f4578063313ce567146101c257806339509351146101e0578063481ee99414610210578063483a9310146102405780636f48e79b1461027057610121565b806306fdde0314610126578063095ea7b31461014457806318160ddd1461017457806323b872dd14610192575b600080fd5b61012e610424565b60405161013b919061162c565b60405180910390f35b61015e600480360381019061015991906113b8565b6104b6565b60405161016b9190611611565b60405180910390f35b61017c6104d4565b604051610189919061176e565b60405180910390f35b6101ac60048036038101906101a79190611369565b6104de565b6040516101b99190611611565b60405180910390f35b6101ca61053b565b6040516101d79190611789565b60405180910390f35b6101fa60048036038101906101f591906113b8565b610544565b6040516102079190611611565b60405180910390f35b61022a6004803603810190610225919061141d565b6105f0565b6040516102379190611611565b60405180910390f35b61025a600480360381019061025591906113f4565b610692565b604051610267919061176e565b60405180910390f35b61028a60048036038101906102859190611304565b6106be565b6040516102979190611611565b60405180910390f35b6102ba60048036038101906102b59190611304565b610786565b6040516102c7919061176e565b60405180910390f35b6102d86107ce565b6040516102e59190611789565b60405180910390f35b6102f66107e5565b60405161030391906115f6565b60405180910390f35b61031461080f565b604051610321919061162c565b60405180910390f35b610344600480360381019061033f91906113b8565b6108a1565b6040516103519190611611565b60405180910390f35b610374600480360381019061036f91906113b8565b610995565b6040516103819190611611565b60405180910390f35b6103a4600480360381019061039f919061132d565b6109f0565b6040516103b1919061176e565b60405180910390f35b6103d460048036038101906103cf91906113f4565b610a77565b6040516103e1919061176e565b60405180910390f35b6103f2610a9f565b6040516103ff91906115f6565b60405180910390f35b610422600480360381019061041d9190611304565b610ac9565b005b60606003805461043390611ace565b80601f016020809104026020016040519081016040528092919081815260200182805461045f90611ace565b80156104ac5780601f10610481576101008083540402835291602001916104ac565b820191906000526020600020905b81548152906001019060200180831161048f57829003601f168201915b5050505050905090565b60006104ca6104c3610c75565b8484610c7d565b6001905092915050565b6000600254905090565b6000806104ea83610692565b90506104f885858584610e48565b50600081111561052f5761052e600660009054906101000a900473ffffffffffffffffffffffffffffffffffffffff1682610f4b565b5b60019150509392505050565b60006012905090565b60006105e6610551610c75565b84846001600061055f610c75565b73ffffffffffffffffffffffffffffffffffffffff1673ffffffffffffffffffffffffffffffffffffffff16815260200190815260200160002060008873ffffffffffffffffffffffffffffffffffffffff1673ffffffffffffffffffffffffffffffffffffffff168152602001908152602001600020546105e191906117c0565b610c7d565b6001905092915050565b60006105fa610c75565b73ffffffffffffffffffffffffffffffffffffffff166106186107e5565b73ffffffffffffffffffffffffffffffffffffffff161461066e576040517f08c379a0000000000000000000000000000000000000000000000000000000008152600401610665906116ee565b60405180910390fd5b81600560146101000a81548160ff021916908360ff16021790555060019050919050565b600061271061069f6107ce565b60ff16836106ad91906119b8565b6106b79190611816565b9050919050565b60006106c8610c75565b73ffffffffffffffffffffffffffffffffffffffff166106e66107e5565b73ffffffffffffffffffffffffffffffffffffffff161461073c576040517f08c379a0000000000000000000000000000000000000000000000000000000008152600401610733906116ee565b60405180910390fd5b81600660006101000a81548173ffffffffffffffffffffffffffffffffffffffff021916908373ffffffffffffffffffffffffffffffffffffffff16021790555060019050919050565b60008060008373ffffffffffffffffffffffffffffffffffffffff1673ffffffffffffffffffffffffffffffffffffffff168152602001908152602001600020549050919050565b6000600560149054906101000a900460ff16905090565b6000600560009054906101000a900473ffffffffffffffffffffffffffffffffffffffff16905090565b60606004805461081e90611ace565b80601f016020809104026020016040519081016040528092919081815260200182805461084a90611ace565b80156108975780601f1061086c57610100808354040283529160200191610897565b820191906000526020600020905b81548152906001019060200180831161087a57829003601f168201915b5050505050905090565b600080600160006108b0610c75565b73ffffffffffffffffffffffffffffffffffffffff1673ffffffffffffffffffffffffffffffffffffffff16815260200190815260200160002060008573ffffffffffffffffffffffffffffffffffffffff1673ffffffffffffffffffffffffffffffffffffffff1681526020019081526020016000205490508281101561096d576040517f08c379a00000000000000000000000000000000000000000000000000000000081526004016109649061174e565b60405180910390fd5b61098a610978610c75565b8585846109859190611a12565b610c7d565b600191505092915050565b6000806109a183610692565b90506109ae84848361100a565b5060008111156109e5576109e4600660009054906101000a900473ffffffffffffffffffffffffffffffffffffffff1682610f4b565b5b600191505092915050565b6000600160008473ffffffffffffffffffffffffffffffffffffffff1673ffffffffffffffffffffffffffffffffffffffff16815260200190815260200160002060008373ffffffffffffffffffffffffffffffffffffffff1673ffffffffffffffffffffffffffffffffffffffff16815260200190815260200160002054905092915050565b6000610a8161053b565b600a610a8d919061189a565b82610a9891906119b8565b9050919050565b6000600660009054906101000a900473ffffffffffffffffffffffffffffffffffffffff16905090565b610ad1610c75565b73ffffffffffffffffffffffffffffffffffffffff16610aef6107e5565b73ffffffffffffffffffffffffffffffffffffffff1614610b45576040517f08c379a0000000000000000000000000000000000000000000000000000000008152600401610b3c906116ee565b60405180910390fd5b600073ffffffffffffffffffffffffffffffffffffffff168173ffffffffffffffffffffffffffffffffffffffff161415610bb5576040517f08c379a0000000000000000000000000000000000000000000000000000000008152600401610bac9061166e565b60405180910390fd5b8073ffffffffffffffffffffffffffffffffffffffff16600560009054906101000a900473ffffffffffffffffffffffffffffffffffffffff1673ffffffffffffffffffffffffffffffffffffffff167f8be0079c531659141344cd1fd0a4f28419497f9722a3daafe3b4186f6b6457e060405160405180910390a380600560006101000a81548173ffffffffffffffffffffffffffffffffffffffff021916908373ffffffffffffffffffffffffffffffffffffffff16021790555050565b600033905090565b600073ffffffffffffffffffffffffffffffffffffffff168373ffffffffffffffffffffffffffffffffffffffff161415610ced576040517f08c379a0000000000000000000000000000000000000000000000000000000008152600401610ce49061172e565b60405180910390fd5b600073ffffffffffffffffffffffffffffffffffffffff168273ffffffffffffffffffffffffffffffffffffffff161415610d5d576040517f08c379a0000000000000000000000000000000000000000000000000000000008152600401610d549061168e565b60405180910390fd5b80600160008573ffffffffffffffffffffffffffffffffffffffff1673ffffffffffffffffffffffffffffffffffffffff16815260200190815260200160002060008473ffffffffffffffffffffffffffffffffffffffff1673ffffffffffffffffffffffffffffffffffffffff168152602001908152602001600020819055508173ffffffffffffffffffffffffffffffffffffffff168373ffffffffffffffffffffffffffffffffffffffff167f8c5be1e5ebec7d5bd14f71427d1e84f3dd0314c0f7b2291e5b200ac8c7c3b92583604051610e3b919061176e565b60405180910390a3505050565b6000610e568585858561102a565b6000600160008773ffffffffffffffffffffffffffffffffffffffff1673ffffffffffffffffffffffffffffffffffffffff1681526020019081526020016000206000610ea1610c75565b73ffffffffffffffffffffffffffffffffffffffff1673ffffffffffffffffffffffffffffffffffffffff16815260200190815260200160002054905083811015610f21576040517f08c379a0000000000000000000000000000000000000000000000000000000008152600401610f18906116ce565b60405180910390fd5b610f3e86610f2d610c75565b8684610f399190611a12565b610c7d565b6001915050949350505050565b806000808473ffffffffffffffffffffffffffffffffffffffff1673ffffffffffffffffffffffffffffffffffffffff1681526020019081526020016000206000828254610f9991906117c0565b925050819055508173ffffffffffffffffffffffffffffffffffffffff16600073ffffffffffffffffffffffffffffffffffffffff167fddf252ad1be2c89b69c2b068fc378daa952ba7f163c4a11628f55a4df523b3ef83604051610ffe919061176e565b60405180910390a35050565b600061101f611017610c75565b85858561102a565b600190509392505050565b600073ffffffffffffffffffffffffffffffffffffffff168473ffffffffffffffffffffffffffffffffffffffff16141561109a576040517f08c379a00000000000000000000000000000000000000000000000000000000081526004016110919061170e565b60405180910390fd5b600073ffffffffffffffffffffffffffffffffffffffff168373ffffffffffffffffffffffffffffffffffffffff16141561110a576040517f08c379a00000000000000000000000000000000000000000000000000000000081526004016111019061164e565b60405180910390fd5b6111158484846112c0565b60008060008673ffffffffffffffffffffffffffffffffffffffff1673ffffffffffffffffffffffffffffffffffffffff1681526020019081526020016000205490508281101561119b576040517f08c379a0000000000000000000000000000000000000000000000000000000008152600401611192906116ae565b60405180910390fd5b82816111a79190611a12565b6000808773ffffffffffffffffffffffffffffffffffffffff1673ffffffffffffffffffffffffffffffffffffffff1681526020019081526020016000208190555081836111f59190611a12565b6000808673ffffffffffffffffffffffffffffffffffffffff1673ffffffffffffffffffffffffffffffffffffffff168152602001908152602001600020600082825461124291906117c0565b925050819055508373ffffffffffffffffffffffffffffffffffffffff168573ffffffffffffffffffffffffffffffffffffffff167fddf252ad1be2c89b69c2b068fc378daa952ba7f163c4a11628f55a4df523b3ef84866112a49190611a12565b6040516112b1919061176e565b60405180910390a35050505050565b505050565b6000813590506112d481611e4c565b92915050565b6000813590506112e981611e63565b92915050565b6000813590506112fe81611e7a565b92915050565b60006020828403121561131657600080fd5b6000611324848285016112c5565b91505092915050565b6000806040838503121561134057600080fd5b600061134e858286016112c5565b925050602061135f858286016112c5565b9150509250929050565b60008060006060848603121561137e57600080fd5b600061138c868287016112c5565b935050602061139d868287016112c5565b92505060406113ae868287016112da565b9150509250925092565b600080604083850312156113cb57600080fd5b60006113d9858286016112c5565b92505060206113ea858286016112da565b9150509250929050565b60006020828403121561140657600080fd5b6000611414848285016112da565b91505092915050565b60006020828403121561142f57600080fd5b600061143d848285016112ef565b91505092915050565b61144f81611a46565b82525050565b61145e81611a58565b82525050565b600061146f826117a4565b61147981856117af565b9350611489818560208601611a9b565b61149281611b8d565b840191505092915050565b60006114aa6023836117af565b91506114b582611bab565b604082019050919050565b60006114cd6026836117af565b91506114d882611bfa565b604082019050919050565b60006114f06022836117af565b91506114fb82611c49565b604082019050919050565b60006115136026836117af565b915061151e82611c98565b604082019050919050565b60006115366028836117af565b915061154182611ce7565b604082019050919050565b60006115596020836117af565b915061156482611d36565b602082019050919050565b600061157c6025836117af565b915061158782611d5f565b604082019050919050565b600061159f6024836117af565b91506115aa82611dae565b604082019050919050565b60006115c26025836117af565b91506115cd82611dfd565b604082019050919050565b6115e181611a84565b82525050565b6115f081611a8e565b82525050565b600060208201905061160b6000830184611446565b92915050565b60006020820190506116266000830184611455565b92915050565b600060208201905081810360008301526116468184611464565b905092915050565b600060208201905081810360008301526116678161149d565b9050919050565b60006020820190508181036000830152611687816114c0565b9050919050565b600060208201905081810360008301526116a7816114e3565b9050919050565b600060208201905081810360008301526116c781611506565b9050919050565b600060208201905081810360008301526116e781611529565b9050919050565b600060208201905081810360008301526117078161154c565b9050919050565b600060208201905081810360008301526117278161156f565b9050919050565b6000602082019050818103600083015261174781611592565b9050919050565b60006020820190508181036000830152611767816115b5565b9050919050565b600060208201905061178360008301846115d8565b92915050565b600060208201905061179e60008301846115e7565b92915050565b600081519050919050565b600082825260208201905092915050565b60006117cb82611a84565b91506117d683611a84565b9250827fffffffffffffffffffffffffffffffffffffffffffffffffffffffffffffffff0382111561180b5761180a611b00565b5b828201905092915050565b600061182182611a84565b915061182c83611a84565b92508261183c5761183b611b2f565b5b828204905092915050565b6000808291508390505b60018511156118915780860481111561186d5761186c611b00565b5b600185161561187c5780820291505b808102905061188a85611b9e565b9450611851565b94509492505050565b60006118a582611a84565b91506118b083611a8e565b92506118dd7fffffffffffffffffffffffffffffffffffffffffffffffffffffffffffffffff84846118e5565b905092915050565b6000826118f557600190506119b1565b8161190357600090506119b1565b8160018114611919576002811461192357611952565b60019150506119b1565b60ff84111561193557611934611b00565b5b8360020a91508482111561194c5761194b611b00565b5b506119b1565b5060208310610133831016604e8410600b84101617156119875782820a90508381111561198257611981611b00565b5b6119b1565b6119948484846001611847565b925090508184048111156119ab576119aa611b00565b5b81810290505b9392505050565b60006119c382611a84565b91506119ce83611a84565b9250817fffffffffffffffffffffffffffffffffffffffffffffffffffffffffffffffff0483118215151615611a0757611a06611b00565b5b828202905092915050565b6000611a1d82611a84565b9150611a2883611a84565b925082821015611a3b57611a3a611b00565b5b828203905092915050565b6000611a5182611a64565b9050919050565b60008115159050919050565b600073ffffffffffffffffffffffffffffffffffffffff82169050919050565b6000819050919050565b600060ff82169050919050565b60005b83811015611ab9578082015181840152602081019050611a9e565b83811115611ac8576000848401525b50505050565b60006002820490506001821680611ae657607f821691505b60208210811415611afa57611af9611b5e565b5b50919050565b7f4e487b7100000000000000000000000000000000000000000000000000000000600052601160045260246000fd5b7f4e487b7100000000000000000000000000000000000000000000000000000000600052601260045260246000fd5b7f4e487b7100000000000000000000000000000000000000000000000000000000600052602260045260246000fd5b6000601f19601f8301169050919050565b60008160011c9050919050565b7f45524332303a207472616e7366657220746f20746865207a65726f206164647260008201527f6573730000000000000000000000000000000000000000000000000000000000602082015250565b7f4f776e61626c653a206e6577206f776e657220697320746865207a65726f206160008201527f6464726573730000000000000000000000000000000000000000000000000000602082015250565b7f45524332303a20617070726f766520746f20746865207a65726f20616464726560008201527f7373000000000000000000000000000000000000000000000000000000000000602082015250565b7f45524332303a207472616e7366657220616d6f756e742065786365656473206260008201527f616c616e63650000000000000000000000000000000000000000000000000000602082015250565b7f45524332303a207472616e7366657220616d6f756e742065786365656473206160008201527f6c6c6f77616e6365000000000000000000000000000000000000000000000000602082015250565b7f4f776e61626c653a2063616c6c6572206973206e6f7420746865206f776e6572600082015250565b7f45524332303a207472616e736665722066726f6d20746865207a65726f20616460008201527f6472657373000000000000000000000000000000000000000000000000000000602082015250565b7f45524332303a20617070726f76652066726f6d20746865207a65726f2061646460008201527f7265737300000000000000000000000000000000000000000000000000000000602082015250565b7f45524332303a2064656372656173656420616c6c6f77616e63652062656c6f7760008201527f207a65726f000000000000000000000000000000000000000000000000000000602082015250565b611e5581611a46565b8114611e6057600080fd5b50565b611e6c81611a84565b8114611e7757600080fd5b50565b611e8381611a8e565b8114611e8e57600080fd5b5056fea2646970667358221220393fb14ad0a0f6b0e1919fddd9a50b4fc07967e31949dd96711c83e7030bd38964736f6c63430008030033",
  "immutableReferences": {},
  "source": "pragma solidity ^0.8.3;\r\n// SPDX-License-Identifier: MIT\r\n\r\nimport \"./ERC20Taxable.sol\";\r\nimport \"./Ownable.sol\";\r\n\r\ncontract RewildToken is ERC20Taxable, Ownable {\r\n    uint8 private _taxBasisPoints = 100;\r\n    address private _donationAddress = 0xb6e1aA93DB091141Ef1C67751b4068A2d807a8c2;\r\n\r\n    // Necessary basis points exponent to achieve a resolution of 1 token when calculating percentages\r\n    uint8 private _basisPointsExponent = 28;\r\n\r\n    constructor ()\r\n        ERC20Taxable('Rewild', 'RWLD')\r\n    {\r\n        _mint(0x3b1299734a1d85427a7B316a795f57Bc4abab454, getTokensFromDisplayValue(384000000));\r\n        _mint(0xb6e1aA93DB091141Ef1C67751b4068A2d807a8c2, getTokensFromDisplayValue(128000000));\r\n        _mint(0x1602643FD58E6DAFb0af9DA75cAC1FAb8612a222, getTokensFromDisplayValue(32000000));\r\n        _mint(0x70b6275138e1293f177924FC531879E034688E07, getTokensFromDisplayValue(25600000));\r\n        _mint(0xE8D2915B7868884721A1030BF7a5D6EF38E3e4fe, getTokensFromDisplayValue(1920000));\r\n        _mint(0x61aCEAE8a22dF9824e1Ada9B7753385e329766bd, getTokensFromDisplayValue(9600000));\r\n        _mint(0x35948a563d89cDe7b55Aa87429AC926e65B4A36E, getTokensFromDisplayValue(9600000));\r\n        _mint(0xF1804Fb5048038f9Cd5F56AD8b2dfd7DE0778296, getTokensFromDisplayValue(1920000));\r\n        _mint(0xd5033D2BcE919E60B89ba55094211A8D1f8fF600, getTokensFromDisplayValue(3840000));\r\n        _mint(0x066Aa3A32E9b9d5fD48046499bD2b840bbD50283, getTokensFromDisplayValue(43520000));\r\n    }\r\n\r\n    /** TRANSACTIONS **/\r\n\r\n    function transfer(address recipient, uint256 amount) public override returns(bool) {\r\n        uint256 tax = calculateTax(amount);\r\n        transferWithTax(recipient, amount, tax);\r\n        if(tax > 0) {\r\n            increaseBalance(_donationAddress, tax);\r\n        }\r\n\r\n        return true;\r\n    }\r\n\r\n    function transferFrom(address sender, address recipient, uint256 amount) public virtual override returns (bool) {\r\n        uint256 tax = calculateTax(amount);\r\n        transferFromWithTax(sender, recipient, amount, tax);\r\n        if(tax > 0) {\r\n            increaseBalance(_donationAddress, tax);\r\n        }\r\n        return true;\r\n    }\r\n\r\n    /** STATE MUTATION OWNER **/\r\n\r\n    function setTaxBasisPoints(uint8 taxBasisPoints_) public onlyOwner returns(bool) {\r\n        _taxBasisPoints = taxBasisPoints_;\r\n        return true;\r\n    }\r\n\r\n    function setDonationAddress(address donationAddress_) public onlyOwner returns(bool) {\r\n        _donationAddress = donationAddress_;\r\n        return true;\r\n    }\r\n\r\n    /** VIEWS TRANSFORM **/\r\n\r\n    function calculateTax(uint256 amount_) public view returns(uint256) {\r\n        return (amount_ * taxBasisPoints())/10000;\r\n    }\r\n\r\n    function getTokensFromDisplayValue(uint256 displayValue_) public view returns(uint256) {\r\n        return displayValue_ * (10 ** decimals());\r\n    }\r\n\r\n    /** VIEWS READ **/\r\n\r\n    function donationAddress() public view returns(address) {\r\n        return _donationAddress;\r\n    }\r\n\r\n    function basisPointsFactor() internal view returns(uint256) {\r\n        return 10 ** basisPointsExponent();\r\n    }\r\n\r\n    function basisPointsExponent() internal view returns(uint8) {\r\n        return _basisPointsExponent;\r\n    }\r\n\r\n    function taxBasisPoints() public view returns (uint8){\r\n        return _taxBasisPoints;\r\n    }\r\n}\r\n",
  "sourcePath": "C:/Users/kirim/Documents/Projects/TheRewildFundToken/contracts/RewildToken.sol",
  "compiler": {
    "name": "solc",
    "version": "0.8.3+commit.8d00100c.Emscripten.clang"
  },
  "schemaVersion": "3.3.4",
  "updatedAt": "2021-04-24T00:13:00.058Z",
  "devdoc": {
    "kind": "dev",
    "methods": {
      "allowance(address,address)": {
        "details": "See {IERC20-allowance}."
      },
      "approve(address,uint256)": {
        "details": "See {IERC20-approve}. Requirements: - `spender` cannot be the zero address."
      },
      "balanceOf(address)": {
        "details": "See {IERC20-balanceOf}."
      },
      "decimals()": {
        "details": "Returns the number of decimals used to get its user representation. For example, if `decimals` equals `2`, a balance of `505` tokens should be displayed to a user as `5,05` (`505 / 10 ** 2`). Tokens usually opt for a value of 18, imitating the relationship between Ether and Wei. This is the value {ERC20} uses, unless this function is overloaded; NOTE: This information is only used for _display_ purposes: it in no way affects any of the arithmetic of the contract, including {IERC20-balanceOf} and {IERC20-transfer}."
      },
      "decreaseAllowance(address,uint256)": {
        "details": "Atomically decreases the allowance granted to `spender` by the caller. This is an alternative to {approve} that can be used as a mitigation for problems described in {IERC20-approve}. Emits an {Approval} event indicating the updated allowance. Requirements: - `spender` cannot be the zero address. - `spender` must have allowance for the caller of at least `subtractedValue`."
      },
      "increaseAllowance(address,uint256)": {
        "details": "Atomically increases the allowance granted to `spender` by the caller. This is an alternative to {approve} that can be used as a mitigation for problems described in {IERC20-approve}. Emits an {Approval} event indicating the updated allowance. Requirements: - `spender` cannot be the zero address."
      },
      "name()": {
        "details": "Returns the name of the token."
      },
      "owner()": {
        "details": "Returns the address of the current owner."
      },
      "symbol()": {
        "details": "Returns the symbol of the token, usually a shorter version of the name."
      },
      "totalSupply()": {
        "details": "See {IERC20-totalSupply}."
      },
      "transferFrom(address,address,uint256)": {
        "details": "See {IERC20-transferFrom}. Emits an {Approval} event indicating the updated allowance. This is not required by the EIP. See the note at the beginning of {ERC20}. Requirements: - `sender` and `recipient` cannot be the zero address. - `sender` must have a balance of at least `amount`. - the caller must have allowance for ``sender``'s tokens of at least `amount`."
      },
      "transferOwnership(address)": {
        "details": "Transfers ownership of the contract to a new account (`newOwner`). Can only be called by the current owner."
      }
    },
    "version": 1
  },
  "userdoc": {
    "kind": "user",
    "methods": {
      "calculateTax(uint256)": {
        "notice": "VIEWS TRANSFORM *"
      },
      "donationAddress()": {
        "notice": "VIEWS READ *"
      },
      "setTaxBasisPoints(uint8)": {
        "notice": "STATE MUTATION OWNER *"
      },
      "transfer(address,uint256)": {
        "notice": "TRANSACTIONS *"
      }
    },
    "version": 1
  }
}